{
  "contractName": "Voting",
  "abi": [
    {
      "constant": true,
      "inputs": [
        {
          "name": "",
          "type": "bytes32"
        }
      ],
      "name": "votesReceived",
      "outputs": [
        {
          "name": "",
          "type": "uint256"
        }
      ],
      "payable": false,
      "stateMutability": "view",
      "type": "function"
    },
    {
      "constant": true,
      "inputs": [],
      "name": "totalTokens",
      "outputs": [
        {
          "name": "",
          "type": "uint256"
        }
      ],
      "payable": false,
      "stateMutability": "view",
      "type": "function"
    },
    {
      "constant": true,
      "inputs": [],
      "name": "tokenPrice",
      "outputs": [
        {
          "name": "",
          "type": "uint256"
        }
      ],
      "payable": false,
      "stateMutability": "view",
      "type": "function"
    },
    {
      "constant": true,
      "inputs": [
        {
          "name": "",
          "type": "uint256"
        }
      ],
      "name": "candidateList",
      "outputs": [
        {
          "name": "",
          "type": "bytes32"
        }
      ],
      "payable": false,
      "stateMutability": "view",
      "type": "function"
    },
    {
      "constant": true,
      "inputs": [
        {
          "name": "",
          "type": "address"
        }
      ],
      "name": "voterInfo",
      "outputs": [
        {
          "name": "voterAddress",
          "type": "address"
        },
        {
          "name": "tokensBought",
          "type": "uint256"
        }
      ],
      "payable": false,
      "stateMutability": "view",
      "type": "function"
    },
    {
      "constant": true,
      "inputs": [],
      "name": "balanceTokens",
      "outputs": [
        {
          "name": "",
          "type": "uint256"
        }
      ],
      "payable": false,
      "stateMutability": "view",
      "type": "function"
    },
    {
      "inputs": [
        {
          "name": "tokens",
          "type": "uint256"
        },
        {
          "name": "pricePerToken",
          "type": "uint256"
        },
        {
          "name": "candidateNames",
          "type": "bytes32[]"
        }
      ],
      "payable": false,
      "stateMutability": "nonpayable",
      "type": "constructor"
    },
    {
      "constant": false,
      "inputs": [],
      "name": "buy",
      "outputs": [],
      "payable": true,
      "stateMutability": "payable",
      "type": "function"
    },
    {
      "constant": false,
      "inputs": [
        {
          "name": "candidate",
          "type": "bytes32"
        },
        {
          "name": "tokens",
          "type": "uint256"
        }
      ],
      "name": "voteForCandidate",
      "outputs": [],
      "payable": false,
      "stateMutability": "nonpayable",
      "type": "function"
    },
    {
      "constant": true,
      "inputs": [
        {
          "name": "candidate",
          "type": "bytes32"
        }
      ],
      "name": "indexOfCandidate",
      "outputs": [
        {
          "name": "",
          "type": "uint256"
        }
      ],
      "payable": false,
      "stateMutability": "view",
      "type": "function"
    },
    {
      "constant": true,
      "inputs": [
        {
          "name": "user",
          "type": "address"
        }
      ],
      "name": "voterDetails",
      "outputs": [
        {
          "name": "",
          "type": "uint256"
        },
        {
          "name": "",
          "type": "uint256[]"
        }
      ],
      "payable": false,
      "stateMutability": "view",
      "type": "function"
    },
    {
      "constant": true,
      "inputs": [],
      "name": "tokensSold",
      "outputs": [
        {
          "name": "",
          "type": "uint256"
        }
      ],
      "payable": false,
      "stateMutability": "view",
      "type": "function"
    },
    {
      "constant": true,
      "inputs": [],
      "name": "allCandidates",
      "outputs": [
        {
          "name": "",
          "type": "bytes32[]"
        }
      ],
      "payable": false,
      "stateMutability": "view",
      "type": "function"
    },
    {
      "constant": true,
      "inputs": [
        {
          "name": "candidate",
          "type": "bytes32"
        }
      ],
      "name": "totalVotesFor",
      "outputs": [
        {
          "name": "",
          "type": "uint256"
        }
      ],
      "payable": false,
      "stateMutability": "view",
      "type": "function"
    }
  ],
  "bytecode": "0x608060405234801561001057600080fd5b50604051610cb3380380610cb38339810180604052606081101561003357600080fd5b810190808051906020019092919080519060200190929190805164010000000081111561005f57600080fd5b8281019050602081018481111561007557600080fd5b815185602082028301116401000000008211171561009257600080fd5b505092919050505080600290805190602001906100b09291906100ce565b50826003819055508260048190555081600581905550505050610140565b82805482825590600052602060002090810192821561010a579160200282015b828111156101095782518255916020019190600101906100ee565b5b509050610117919061011b565b5090565b61013d91905b80821115610139576000816000905550600101610121565b5090565b90565b610b648061014f6000396000f3fe6080604052600436106100c5576000357c0100000000000000000000000000000000000000000000000000000000900463ffffffff1680632f265cf7146100ca578063518ab2a8146101195780635938750d146101445780636b2dc6b5146101f15780637021939f146102365780637e1c0c09146102855780637ff9b596146102b057806381c40715146102db578063a6f2ae3a14610347578063b13c744b14610351578063cdf58d35146103a0578063e4494a0f14610438578063ecd098b014610463575b600080fd5b3480156100d657600080fd5b50610103600480360360208110156100ed57600080fd5b81019080803590602001909291905050506104b2565b6040518082815260200191505060405180910390f35b34801561012557600080fd5b5061012e6104cf565b6040518082815260200191505060405180910390f35b34801561015057600080fd5b506101936004803603602081101561016757600080fd5b81019080803573ffffffffffffffffffffffffffffffffffffffff1690602001909291905050506104dd565b6040518083815260200180602001828103825283818151815260200191508051906020019060200280838360005b838110156101dc5780820151818401526020810190506101c1565b50505050905001935050505060405180910390f35b3480156101fd57600080fd5b506102346004803603604081101561021457600080fd5b8101908080359060200190929190803590602001909291905050506105bf565b005b34801561024257600080fd5b5061026f6004803603602081101561025957600080fd5b810190808035906020019092919050505061088b565b6040518082815260200191505060405180910390f35b34801561029157600080fd5b5061029a6108a3565b6040518082815260200191505060405180910390f35b3480156102bc57600080fd5b506102c56108a9565b6040518082815260200191505060405180910390f35b3480156102e757600080fd5b506102f06108af565b6040518080602001828103825283818151815260200191508051906020019060200280838360005b83811015610333578082015181840152602081019050610318565b505050509050019250505060405180910390f35b61034f610907565b005b34801561035d57600080fd5b5061038a6004803603602081101561037457600080fd5b8101908080359060200190929190505050610a0c565b6040518082815260200191505060405180910390f35b3480156103ac57600080fd5b506103ef600480360360208110156103c357600080fd5b81019080803573ffffffffffffffffffffffffffffffffffffffff169060200190929190505050610a2f565b604051808373ffffffffffffffffffffffffffffffffffffffff1673ffffffffffffffffffffffffffffffffffffffff1681526020018281526020019250505060405180910390f35b34801561044457600080fd5b5061044d610a73565b6040518082815260200191505060405180910390f35b34801561046f57600080fd5b5061049c6004803603602081101561048657600080fd5b8101908080359060200190929190505050610a79565b6040518082815260200191505060405180910390f35b600060016000838152602001908152602001600020549050919050565b600060045460035403905090565b600060606000808473ffffffffffffffffffffffffffffffffffffffff1673ffffffffffffffffffffffffffffffffffffffff168152602001908152602001600020600101546000808573ffffffffffffffffffffffffffffffffffffffff1673ffffffffffffffffffffffffffffffffffffffff168152602001908152602001600020600201808054806020026020016040519081016040528092919081815260200182805480156105af57602002820191906000526020600020905b81548152602001906001019080831161059b575b5050505050905091509150915091565b60006106596000803373ffffffffffffffffffffffffffffffffffffffff1673ffffffffffffffffffffffffffffffffffffffff16815260200190815260200160002060020180548060200260200160405190810160405280929190818152602001828054801561064f57602002820191906000526020600020905b81548152602001906001019080831161063b575b5050505050610aef565b6000803373ffffffffffffffffffffffffffffffffffffffff1673ffffffffffffffffffffffffffffffffffffffff16815260200190815260200160002060010154039050808211151515610716576040517f08c379a000000000000000000000000000000000000000000000000000000000815260040180806020018281038252601c8152602001807f596f7520646f6e2774206861766520656e6f75676820746f6b656e730000000081525060200191505060405180910390fd5b81600160008581526020019081526020016000206000828254019250508190555060008060003373ffffffffffffffffffffffffffffffffffffffff1673ffffffffffffffffffffffffffffffffffffffff1681526020019081526020016000206002018054905014156108125760008090505b600280549050811015610810576000803373ffffffffffffffffffffffffffffffffffffffff1673ffffffffffffffffffffffffffffffffffffffff16815260200190815260200160002060020160009080600181540180825580915050906001820390600052602060002001600090919290919091505550808060010191505061078a565b505b600061081d84610a79565b9050826000803373ffffffffffffffffffffffffffffffffffffffff1673ffffffffffffffffffffffffffffffffffffffff1681526020019081526020016000206002018281548110151561086e57fe5b906000526020600020016000828254019250508190555050505050565b60016020528060005260406000206000915090505481565b60035481565b60055481565b606060028054806020026020016040519081016040528092919081815260200182805480156108fd57602002820191906000526020600020905b8154815260200190600101908083116108e9575b5050505050905090565b60006005543481151561091657fe5b049050600454811115151561092a57600080fd5b336000803373ffffffffffffffffffffffffffffffffffffffff1673ffffffffffffffffffffffffffffffffffffffff16815260200190815260200160002060000160006101000a81548173ffffffffffffffffffffffffffffffffffffffff021916908373ffffffffffffffffffffffffffffffffffffffff160217905550806000803373ffffffffffffffffffffffffffffffffffffffff1673ffffffffffffffffffffffffffffffffffffffff168152602001908152602001600020600101600082825401925050819055508060046000828254039250508190555050565b600281815481101515610a1b57fe5b906000526020600020016000915090505481565b60006020528060005260406000206000915090508060000160009054906101000a900473ffffffffffffffffffffffffffffffffffffffff16908060010154905082565b60045481565b600080600090505b600280549050811015610ac55782600282815481101515610a9e57fe5b90600052602060002001541415610ab85780915050610aea565b8080600101915050610a81565b507fffffffffffffffffffffffffffffffffffffffffffffffffffffffffffffffff90505b919050565b6000806000905060008090505b8351811015610b2e578381815181101515610b1357fe5b90602001906020020151820191508080600101915050610afc565b508091505091905056fea165627a7a72305820c0fbec75d8946ff65151b2cfebcf23db3996026fbefda7b8c9937c95e75cda050029",
  "source": "pragma solidity >=0.4.0 <0.6.0;\r\n\r\ncontract Voting {\r\n\r\n // We use the struct datatype to store the voter information.\r\n struct voter {\r\n  address voterAddress; // ��ǥ���� �ּ�, �ּ� �ڷ���\r\n  uint tokensBought;  // ��ǥ�ڰ� ���� ��ū�� ����\r\n  uint[] tokensUsedPerCandidate; // �ĺ����� ��ǥ�� ���� ��ū��\r\n  /* We have an array of candidates initialized below.\r\n   Every time this voter votes with her tokens, the value at that\r\n   index is incremented. Example, if candidateList array declared\r\n   below has [\"Rama\", \"Nick\", \"Jose\"] and this\r\n   voter votes 10 tokens to Nick, the tokensUsedPerCandidate[1]\r\n   will be incremented by 10.\r\n   */\r\n }// �� ��ǥ�ڰ� �̷��� ����ü�� ������ �ȴ�.\r\n\r\n /* mapping is equivalent to an associate array or hash\r\n  The key of the mapping is candidate name stored as type bytes32 and value is\r\n  an unsigned integer which used to store the vote count\r\n  */\r\n\r\n mapping (address => voter) public voterInfo;// ��ǥ�� ������ �ּҿ� ���� ��ȸ�� �� �ִ�.\r\n //��ǥ�� ���� ����ü�� �ּҰ� Ű�� �Ǿ� ��ǥ�ڰ� ���� �Ǵ� ����ü�� ����\r\n\r\n /* Solidity doesn't let you return an array of strings yet. We will use an array of bytes32\r\n  instead to store the list of candidates\r\n  */\r\n\r\n mapping (bytes32 => uint) public votesReceived;// ���� ��ǥ���� ���\r\n\r\n bytes32[] public candidateList; // �ĺ��� ����Ʈ\r\n\r\n uint public totalTokens; // Total no. of tokens available for this election �� ��ū ��\r\n uint public balanceTokens; // Total no. of tokens still available for purchase ���� ������ ��ū ��\r\n uint public tokenPrice; // Price per token  ��ū�� ����\r\n\r\n /* When the contract is deployed on the blockchain, we will initialize\r\n  the total number of tokens for sale, cost per token and all the candidates\r\n  */\r\n constructor(uint tokens, uint pricePerToken, bytes32[] memory candidateNames) public {\r\n  candidateList = candidateNames; \r\n  totalTokens = tokens;//\r\n  balanceTokens = tokens;\r\n  tokenPrice = pricePerToken;\r\n }// ������, ��ū ���� ����, ���� �����Ͽ� �ϳ��� �ȸ��� �ʾ����Ƿ� �� ��ū��, ���Ű����� ��ū���� ������ token����\r\n\r\n  //1. Users should be able to purchase tokens ��ū�� ������ �� �־�� �Ѵ�.\r\n  //2. Users should be able to vote for candidates with tokens ��ū���� �ĺ��ڿ��� ��ǥ�� �� �־���Ѵ�.\r\n  //3. Anyone should be able to lookup voter info ��ǥ�� ������ Ȯ���� �� �־�� �Ѵ�.\r\n  function buy() payable public {//���� ����� �������� payable�� ����ؾ� �Ѵ�.\r\n    uint tokensToBuy = msg.value / tokenPrice;// msg value�� ����ϸ� �̴��� �󸶳� ���´��� Ȯ�� (wei����)\r\n    require(tokensToBuy <= balanceTokens);//����� ��ū�� ���� ���� �ȼ� �ִ� ��ū�� �纸�ٴ� �۾ƾ��Ѵ�.\r\n    voterInfo[msg.sender].voterAddress = msg.sender;//msg.sender�� ��� ������ buy�Լ��� ȣ���޴��� �˷���  \r\n    voterInfo[msg.sender].tokensBought += tokensToBuy;// ��ū�� �������� ������ ����ü�� ������ ��ū�� ���� �÷��� �Ѥ�\r\n    balanceTokens -= tokensToBuy; // ���Ű����� ��ū�� �� ��ŭ�� ��ū��ŭ ������\r\n  }\r\n    function voteForCandidate(bytes32 candidate, uint tokens) public {\r\n    // Check to make sure user has enough tokens to vote ��ǥ�� ���� ��ū�� ����� �����ϴ��� Ȯ��\r\n    // Increment vote count for candidate ��ǥ�� Ƚ���� ����\r\n    // Update the voter struct tokensUsedPerCandidate for this voter  ����ü�� ���� ������Ʈ\r\n     //  ��ǥ�� �ĺ��� Ư�� �� �ƴ϶� ��� ��ū�� �� �ĺ��ڿ��� ��ǥ�� ������\r\n    uint availableTokens = voterInfo[msg.sender].tokensBought - totalTokensUsed(voterInfo[msg.sender].tokensUsedPerCandidate);\r\n   // ����ڰ� ������ ��ū���� ��ǥ�� ����� �� ��ū ���� �� ��\r\n    require(tokens <= availableTokens, \"You don't have enough tokens\");// ��ū�� ������� ������ �ܰ���\r\n    votesReceived[candidate] += tokens;\r\n     \r\n    if(voterInfo[msg.sender].tokensUsedPerCandidate.length == 0) {//�ʱ�ȭ\r\n      for(uint i=0; i<candidateList.length; i++) {\r\n        voterInfo[msg.sender].tokensUsedPerCandidate.push(0);\r\n      }\r\n    }\r\n     \r\n    uint index = indexOfCandidate(candidate);\r\n    voterInfo[msg.sender].tokensUsedPerCandidate[index] += tokens;//�ش� �ĺ�����  \r\n  }\r\n   \r\n  function indexOfCandidate(bytes32 candidate) view public returns(uint) {\r\n    for(uint i=0; i<candidateList.length; i++) {\r\n      if (candidateList[i] == candidate) {//�ĺ��� ������ �����鼭 �ش�Ǵ� ���� ������ �� index�� ��ȯ\r\n        return i;\r\n      }\r\n    }\r\n    return uint(-1);\r\n  }\r\n\r\n  function totalTokensUsed(uint[] memory _tokensUsedPerCandidate) private pure returns (uint) {//���ο����� ȣ���ϰ� �б� �����̹Ƿ� private view\r\n    uint totalUsedTokens = 0;\r\n    for(uint i=0; i<_tokensUsedPerCandidate.length; i++) {\r\n      totalUsedTokens += _tokensUsedPerCandidate[i];// ��ǥ �� Ƚ�� üũ\r\n    }\r\n    return totalUsedTokens;\r\n  } \r\n  function voterDetails(address user) view public returns (uint, uint[] memory) {//�ĺ��� ���� ��ȯ,��ǥ�� �ּҿ� ���� ������ ��ŭ�� ��ǥ�� ���� ����\r\n    return (voterInfo[user].tokensBought, voterInfo[user].tokensUsedPerCandidate);\r\n  }\r\n   \r\n  function tokensSold() public view returns (uint) {\r\n    return totalTokens - balanceTokens; //��ū �󸶳� �ȾҴ°�\r\n  }\r\n   \r\n  function allCandidates() public view returns (bytes32[] memory) {\r\n    return candidateList;//�ĺ��� ����Ʈ ���\r\n  }\r\n   \r\n  function totalVotesFor(bytes32 candidate) public view returns (uint) {\r\n    return votesReceived[candidate];//�� �ĺ��� ���� ��ǥ�� ��ü ǥ��\r\n  }\r\n}\r\n",
  "sourcePath": "C:/grad01/vote2/contracts/Voting.sol",
  "compiler": {
    "name": "solc",
    "version": "0.5.0+commit.1d4f565a.Emscripten.clang"
  },
  "schemaVersion": "3.0.9",
  "updatedAt": "2019-05-20T04:37:33.015Z",
  "devdoc": {
    "methods": {}
  },
  "userdoc": {
    "methods": {}
  }
}